:020000040000fa
:080000000002040000000000f2
:020000040000fa
:04000800c80200002a
:020000040000fa
:04000c00c802000026
:020000040000fa
:04001000c802000022
:020000040000fa
:04001400c80200001e
:020000040000fa
:04001800c80200001a
:020000040000fa
:04001c00c802000016
:020000040000fa
:04002000c802000012
:020000040000fa
:04002400c80200000e
:020000040000fa
:04002800c80200000a
:020000040000fa
:04002c00c802000006
:020000040000fa
:04003000c802000002
:020000040000fa
:04003400c8020000fe
:020000040000fa
:04003800c8020000fa
:020000040000fa
:04003c00c8020000f6
:020000040000fa
:04004000c8020000f2
:020000040000fa
:04004400c8020000ee
:020000040000fa
:04004800c8020000ea
:020000040000fa
:04004c00c8020000e6
:020000040000fa
:04005000c8020000e2
:020000040000fa
:04005400c8020000de
:020000040000fa
:04005800c8020000da
:020000040000fa
:04005c00c8020000d6
:020000040000fa
:04006000c8020000d2
:020000040000fa
:04006400c8020000ce
:020000040000fa
:04006800c8020000ca
:020000040000fa
:04006c00c8020000c6
:020000040000fa
:04007000c8020000c2
:020000040000fa
:04007400c8020000be
:020000040000fa
:04007800c8020000ba
:020000040000fa
:04007c00c8020000b6
:020000040000fa
:04008000c8020000b2
:020000040000fa
:04008400c8020000ae
:020000040000fa
:04008800c8020000aa
:020000040000fa
:04008c00c8020000a6
:020000040000fa
:04009000c8020000a2
:020000040000fa
:04009400c80200009e
:020000040000fa
:04009800c80200009a
:020000040000fa
:04009c00c802000096
:020000040000fa
:0400a000c802000092
:020000040000fa
:0400a400c80200008e
:020000040000fa
:0400a800c80200008a
:020000040000fa
:0400ac00c802000086
:020000040000fa
:0400b000c802000082
:020000040000fa
:0400b400c80200007e
:020000040000fa
:0400b800c80200007a
:020000040000fa
:0400bc00c802000076
:020000040000fa
:0400c000c802000072
:020000040000fa
:0400c400c80200006e
:020000040000fa
:0400c800c80200006a
:020000040000fa
:0400cc00c802000066
:020000040000fa
:0400d000c802000062
:020000040000fa
:0400d400c80200005e
:020000040000fa
:0400d800c80200005a
:020000040000fa
:0400dc00c802000056
:020000040000fa
:0400e000c802000052
:020000040000fa
:0400e400c80200004e
:020000040000fa
:0400e800c80200004a
:020000040000fa
:0400ec00c802000046
:020000040000fa
:0400f000c802000042
:020000040000fa
:0400f400c80200003e
:020000040000fa
:0400f800c80200003a
:020000040000fa
:0400fc00c802000036
:020000040000fa
:04010000c802000031
:020000040000fa
:04010400c80200002d
:020000040000fa
:04010800c802000029
:020000040000fa
:04010c00c802000025
:020000040000fa
:04011000c802000021
:020000040000fa
:04011400c80200001d
:020000040000fa
:04011800c802000019
:020000040000fa
:04011c00c802000015
:020000040000fa
:04012000c802000011
:020000040000fa
:04012400c80200000d
:020000040000fa
:04012800c802000009
:020000040000fa
:04012c00c802000005
:020000040000fa
:04013000c802000001
:020000040000fa
:04013400c8020000fd
:020000040000fa
:04013800c8020000f9
:020000040000fa
:04013c00c8020000f5
:020000040000fa
:04014000c8020000f1
:020000040000fa
:04014400c8020000ed
:020000040000fa
:04014800c8020000e9
:020000040000fa
:04020800c802000028
:020000040000fa
:04020c00c802000024
:020000040000fa
:04021000c802000020
:020000040000fa
:04021400c80200001c
:020000040000fa
:04021800c802000018
:020000040000fa
:04021c00c802000014
:020000040000fa
:04022000c802000010
:020000040000fa
:04022400c80200000c
:020000040000fa
:04022800c802000008
:020000040000fa
:04022c00c802000004
:020000040000fa
:04023000c802000000
:020000040000fa
:04023400c8020000fc
:020000040000fa
:04023800c8020000f8
:020000040000fa
:04023c00c8020000f4
:020000040000fa
:04024000c8020000f0
:020000040000fa
:04024400c8020000ec
:020000040000fa
:04024800c8020000e8
:020000040000fa
:04024c00c8020000e4
:020000040000fa
:04025000c8020000e0
:020000040000fa
:04025400c8020000dc
:020000040000fa
:04025800c8020000d8
:020000040000fa
:04025c00c8020000d4
:020000040000fa
:04026000c8020000d0
:020000040000fa
:04026400c8020000cc
:020000040000fa
:04026800c8020000c8
:020000040000fa
:04026c00c8020000c4
:020000040000fa
:04027000c8020000c0
:020000040000fa
:04027400c8020000bc
:020000040000fa
:04027800c8020000b8
:020000040000fa
:04027c00c8020000b4
:020000040000fa
:04028000c8020000b0
:020000040000fa
:04028400c8020000ac
:020000040000fa
:04028800c8020000a8
:020000040000fa
:04028c00c8020000a4
:020000040000fa
:04029000c8020000a0
:020000040000fa
:04029400c80200009c
:020000040000fa
:04029800c802000098
:020000040000fa
:04029c00c802000094
:020000040000fa
:0402a000c802000090
:020000040000fa
:0402a400c80200008c
:020000040000fa
:0402a800c802000088
:020000040000fa
:0402ac00c802000084
:020000040000fa
:0402b000c802000080
:020000040000fa
:0402b400c80200007c
:020000040000fa
:0402b800c802000078
:020000040000fa
:0402bc00c802000074
:020000040000fa
:0402c000c802000070
:020000040000fa
:0402c400c80200006c
:020000040000fa
:0402c800c802000068
:020000040000fa
:0402cc00c802000064
:020000040000fa
:0402d000c802000060
:020000040000fa
:0402d400c80200005c
:020000040000fa
:0402d800c802000058
:020000040000fa
:0402dc00c802000054
:020000040000fa
:0402e000c802000050
:020000040000fa
:0402e400c80200004c
:020000040000fa
:0402e800c802000048
:020000040000fa
:0402ec00c802000044
:020000040000fa
:0402f000c802000040
:020000040000fa
:0402f400c80200003c
:020000040000fa
:0402f800c802000038
:020000040000fa
:0402fc00c802000034
:020000040000fa
:04030000c80200002f
:020000040000fa
:04030400c80200002b
:020000040000fa
:04030800c802000027
:020000040000fa
:04030c00c802000023
:020000040000fa
:04031000c80200001f
:020000040000fa
:04031400c80200001b
:020000040000fa
:04031800c802000017
:020000040000fa
:04031c00c802000013
:020000040000fa
:04032000c80200000f
:020000040000fa
:04032400c80200000b
:020000040000fa
:04032800c802000007
:020000040000fa
:04032c00c802000003
:020000040000fa
:04033000c8020000ff
:020000040000fa
:04033400c8020000fb
:020000040000fa
:04033800c8020000f7
:020000040000fa
:04033c00c8020000f3
:020000040000fa
:04034000c8020000ef
:020000040000fa
:04034400c8020000eb
:020000040000fa
:04034800c8020000e7
:020000040000fa
:100400000f8020000e7f22000e01880000000000f7
:10041000000020000000e000020032000001200087
:1004200020028800140007005b0007000000e000c5
:1004300003003a0000002000010020000200370005
:100440000000200001002000810f70000100320038
:1004500014000700000020000000e000020032004d
:100460000000020000000000f8040200000000008c
:100470000040da000000fe004440a900e000200037
:100480000000e0000300320000002000a00188000e
:100490004440a800000006008a1f78008b1f7800e7
:1004a0000000060091018800800478000000eb0045
:1004b0001a003700e284440032a0b4009905ba0063
:1004c000e284440032a0b4009906ba00e2844400f9
:1004d00032a0b4000006eb00476fde00fd07b2005b
:1004e000636ce10003003a00ebff07000000eb0043
:1004f0000a003700606ce10004003a00005deb0088
:100500008b05e900fdff3e00040037006168e10053
:10051000010032000086eb000b00070019c7ba008b
:100520001905ba000e04e00003003a000a00e000da
:10053000e0ff3a0000000600fe07b2009e018800be
:100540008a047800f5ff3700395dba008b05e900b1
:100550000c003200295dba008b05e900080032006a
:100560000c00e00003003a00e284440032a0b40032
:10057000f5ff370019ddba008b05e900faff3a00f4
:100580008904e800e184440032a0b40000000600c1
:100590000040da000000fe00000005008000780046
:1005a000040037003104e00002003a00000051006e
:1005b00000000600010178000108a300f9ff3a00dd
:1005c0008101780031017800f4ef2f00020242002f
:1005d0000281ea00020162000408280004016100af
:1005e000f7ff320083007800010178003104e00059
:0c05f000fdff3a00000051000000060072
:020000040000fa
:1005fc00486500006c6c00006f2c00000057000078
:0c060c006f7200006c6400002100000010
:020000040000fa
:100618000200fa00000f7800020037007e3e090051
:10062800000000001e00780000f0a7000000ea00ab
:100638000000ea004f00de00004078001e0fe900cd
:100648000004e000f5ff3a000080fa000000060010
:100658000200fa00004f78001602a800000000000f
:10066800b0108000610060000000e000fcff3a006c
:100678008a40a900c00720009010880000000000f0
:1006880050048000640060000000e000fcff3200bd
:100698008a40a9001222ef000000000050048000e8
:1006a800640060000000e000fcff32008a40a900fe
:1006b8001e00fb009010880000000000500480001d
:1006c800640060000000e000fcff32008a40a900de
:1006d8001642a80000000000b0108000640060000e
:1006e8000000e000fcff3a000080fa00000006006d
:1006f8000000fa00d0092000a01088008a40a90054
:1007080017e2a80020032000c1ff070080c3b30040
:10071800cfff070090c3b300cdff070040c1b3006f
:10072800cbff070000c7b300c9ff0700e0c5b3004f
:10073800c7ff0700c0c6b300c5ff0700800c200034
:10074800b3ff070080c3b300c1ff0700c0c0b300f8
:10075800bfff070010c0b300bdff07001000200056
:10076800abff07000080fa00000006000200fa0054
:10077800004f78000e00e800014878000e00e800fd
:1007880010407800c600dd001e40780080c04000a0
:1007980000c8b30000c04000adff07000080fa00a9
:1007a800000006000200fa00004f78001602a800b8
:1007b80000000000b0108000610060000000e00050
:1007c800fcff3a008a40a900c0072000901088006a
:1007d8000000000050048000640060000000e00099
:1007e800fcff32008a40a900000420009010880015
:1007f8000000000050048000640060000000e00079
:10080800fcff32008a40a9001e00fb0090108800ff
:100818000000000050048000640060000000e00058
:10082800fcff32008a40a9001642a8000000000020
:10083800b0108000640060000000e000fcff3a0097
:100848000080fa00000006000000fa00c0c1b300f2
:100858007fff07000080fa00000006000000fa0091
:1008680080c1b3007aff07000080fa00000006008c
:100878000600fa00e400470080087800640047009a
:100888001000780043ff0700800078000e80e80021
:10089800010878001602a80000000000b0108000cf
:1008a800610060000000e000fcff3a008a40a900f7
:1008b800c00720009010880000000000500480004d
:1008c800640060000000e000fcff32008a40a900dc
:1008d8000000eb00000f780016003700000c200025
:1008e8009010880000000000500480006400600040
:1008f8000000e000fcff32008a40a9009e0078005a
:1009080064004700100078000100400010407800a3
:100918000000fb00901088000000000050048000d8
:10092800640060000000e000fcff32008a40a9007b
:100938001e0fe8000e80e800100078000000e900b3
:100948009e0f5000e5ff3c00000420009010880036
:100958000000000050048000640060000000e00017
:10096800fcff32008a40a9000e80e80010007800e1
:100978000000e900e4004700910078000080400092
:10098800104078000000fb00901088000000000074
:1009980050048000640060000000e000fcff3200aa
:1009a8008a40a9001642a80000000000b01080008c
:1009b800640060000000e000fcff3a000080fa00dc
:1009c800000006000000fa000080eb0060198800b3
:1009d800213a8000f08f2f0000806000203a8800c4
:1009e8000080fa00000006000200fa00f5ff070088
:1009f8003fff07000000eb00000f78001e007800a2
:100a08000000e0000a003a008040eb000040eb00e4
:100a180056ff0700e02f280095ff070011c0b3001c
:100a28000040eb0051ff07005030280090ff0700fe
:100a38001e007800670060000000e000040032003b
:100a480040062000f2fe07007fff07000c00370079
:100a580010c0b300fefe07008040eb000040eb0032
:100a680042ff0700e02f280081ff070011c0b300f4
:100a78000040eb003dff0700503028007cff0700d6
:080a88001e0fe800ddff37003e
:020000040000fa
:020000040001f9
:0457f8000ff90000a5
:020000040000fa
:020000040001f9
:0457fc007f3f0000eb
:00000001FF
