:020000040000fa
:080000000002040000000000f2
:020000040000fa
:04000800cc02000026
:020000040000fa
:04000c00cc02000022
:020000040000fa
:04001000cc0200001e
:020000040000fa
:04001400cc0200001a
:020000040000fa
:04001800cc02000016
:020000040000fa
:04001c00cc02000012
:020000040000fa
:04002000cc0200000e
:020000040000fa
:04002400cc0200000a
:020000040000fa
:04002800cc02000006
:020000040000fa
:04002c00cc02000002
:020000040000fa
:04003000cc020000fe
:020000040000fa
:04003400cc020000fa
:020000040000fa
:04003800cc020000f6
:020000040000fa
:04003c00cc020000f2
:020000040000fa
:04004000cc020000ee
:020000040000fa
:04004400cc020000ea
:020000040000fa
:04004800cc020000e6
:020000040000fa
:04004c00cc020000e2
:020000040000fa
:04005000cc020000de
:020000040000fa
:04005400cc020000da
:020000040000fa
:04005800cc020000d6
:020000040000fa
:04005c00cc020000d2
:020000040000fa
:04006000cc020000ce
:020000040000fa
:04006400cc020000ca
:020000040000fa
:04006800cc020000c6
:020000040000fa
:04006c00cc020000c2
:020000040000fa
:04007000cc020000be
:020000040000fa
:04007400cc020000ba
:020000040000fa
:04007800cc020000b6
:020000040000fa
:04007c00cc020000b2
:020000040000fa
:04008000cc020000ae
:020000040000fa
:04008400cc020000aa
:020000040000fa
:04008800cc020000a6
:020000040000fa
:04008c00cc020000a2
:020000040000fa
:04009000cc0200009e
:020000040000fa
:04009400cc0200009a
:020000040000fa
:04009800cc02000096
:020000040000fa
:04009c00cc02000092
:020000040000fa
:0400a000cc0200008e
:020000040000fa
:0400a400cc0200008a
:020000040000fa
:0400a800cc02000086
:020000040000fa
:0400ac00cc02000082
:020000040000fa
:0400b000cc0200007e
:020000040000fa
:0400b400cc0200007a
:020000040000fa
:0400b800cc02000076
:020000040000fa
:0400bc00cc02000072
:020000040000fa
:0400c000cc0200006e
:020000040000fa
:0400c400cc0200006a
:020000040000fa
:0400c800cc02000066
:020000040000fa
:0400cc00cc02000062
:020000040000fa
:0400d000cc0200005e
:020000040000fa
:0400d400cc0200005a
:020000040000fa
:0400d800cc02000056
:020000040000fa
:0400dc00cc02000052
:020000040000fa
:0400e000cc0200004e
:020000040000fa
:0400e400cc0200004a
:020000040000fa
:0400e800cc02000046
:020000040000fa
:0400ec00cc02000042
:020000040000fa
:0400f000cc0200003e
:020000040000fa
:0400f400cc0200003a
:020000040000fa
:0400f800cc02000036
:020000040000fa
:0400fc00cc02000032
:020000040000fa
:04010000cc0200002d
:020000040000fa
:04010400cc02000029
:020000040000fa
:04010800cc02000025
:020000040000fa
:04010c00cc02000021
:020000040000fa
:04011000cc0200001d
:020000040000fa
:04011400cc02000019
:020000040000fa
:04011800cc02000015
:020000040000fa
:04011c00cc02000011
:020000040000fa
:04012000cc0200000d
:020000040000fa
:04012400cc02000009
:020000040000fa
:04012800cc02000005
:020000040000fa
:04012c00cc02000001
:020000040000fa
:04013000cc020000fd
:020000040000fa
:04013400cc020000f9
:020000040000fa
:04013800cc020000f5
:020000040000fa
:04013c00cc020000f1
:020000040000fa
:04014000cc020000ed
:020000040000fa
:04014400cc020000e9
:020000040000fa
:04014800cc020000e5
:020000040000fa
:04020800cc02000024
:020000040000fa
:04020c00cc02000020
:020000040000fa
:04021000cc0200001c
:020000040000fa
:04021400cc02000018
:020000040000fa
:04021800cc02000014
:020000040000fa
:04021c00cc02000010
:020000040000fa
:04022000cc0200000c
:020000040000fa
:04022400cc02000008
:020000040000fa
:04022800cc02000004
:020000040000fa
:04022c00cc02000000
:020000040000fa
:04023000cc020000fc
:020000040000fa
:04023400cc020000f8
:020000040000fa
:04023800cc020000f4
:020000040000fa
:04023c00cc020000f0
:020000040000fa
:04024000cc020000ec
:020000040000fa
:04024400cc020000e8
:020000040000fa
:04024800cc020000e4
:020000040000fa
:04024c00cc020000e0
:020000040000fa
:04025000cc020000dc
:020000040000fa
:04025400cc020000d8
:020000040000fa
:04025800cc020000d4
:020000040000fa
:04025c00cc020000d0
:020000040000fa
:04026000cc020000cc
:020000040000fa
:04026400cc020000c8
:020000040000fa
:04026800cc020000c4
:020000040000fa
:04026c00cc020000c0
:020000040000fa
:04027000cc020000bc
:020000040000fa
:04027400cc020000b8
:020000040000fa
:04027800cc020000b4
:020000040000fa
:04027c00cc020000b0
:020000040000fa
:04028000cc020000ac
:020000040000fa
:04028400cc020000a8
:020000040000fa
:04028800cc020000a4
:020000040000fa
:04028c00cc020000a0
:020000040000fa
:04029000cc0200009c
:020000040000fa
:04029400cc02000098
:020000040000fa
:04029800cc02000094
:020000040000fa
:04029c00cc02000090
:020000040000fa
:0402a000cc0200008c
:020000040000fa
:0402a400cc02000088
:020000040000fa
:0402a800cc02000084
:020000040000fa
:0402ac00cc02000080
:020000040000fa
:0402b000cc0200007c
:020000040000fa
:0402b400cc02000078
:020000040000fa
:0402b800cc02000074
:020000040000fa
:0402bc00cc02000070
:020000040000fa
:0402c000cc0200006c
:020000040000fa
:0402c400cc02000068
:020000040000fa
:0402c800cc02000064
:020000040000fa
:0402cc00cc02000060
:020000040000fa
:0402d000cc0200005c
:020000040000fa
:0402d400cc02000058
:020000040000fa
:0402d800cc02000054
:020000040000fa
:0402dc00cc02000050
:020000040000fa
:0402e000cc0200004c
:020000040000fa
:0402e400cc02000048
:020000040000fa
:0402e800cc02000044
:020000040000fa
:0402ec00cc02000040
:020000040000fa
:0402f000cc0200003c
:020000040000fa
:0402f400cc02000038
:020000040000fa
:0402f800cc02000034
:020000040000fa
:0402fc00cc02000030
:020000040000fa
:04030000cc0200002b
:020000040000fa
:04030400cc02000027
:020000040000fa
:04030800cc02000023
:020000040000fa
:04030c00cc0200001f
:020000040000fa
:04031000cc0200001b
:020000040000fa
:04031400cc02000017
:020000040000fa
:04031800cc02000013
:020000040000fa
:04031c00cc0200000f
:020000040000fa
:04032000cc0200000b
:020000040000fa
:04032400cc02000007
:020000040000fa
:04032800cc02000003
:020000040000fa
:04032c00cc020000ff
:020000040000fa
:04033000cc020000fb
:020000040000fa
:04033400cc020000f7
:020000040000fa
:04033800cc020000f3
:020000040000fa
:04033c00cc020000ef
:020000040000fa
:04034000cc020000eb
:020000040000fa
:04034400cc020000e7
:020000040000fa
:04034800cc020000e3
:020000040000fa
:100400000f8020000e7f22000e01880000000000f7
:10041000000020000000e000020032000001200087
:1004200020028800140007005d0007000000e000c3
:1004300003003a0000002000010020000200370005
:100440000000200001002000810f70000100320038
:1004500014000700000020000000e000020032004d
:1004600000000200000000006a0502000000000019
:100470000040da000000fe004440a9000000200017
:100480000000e0000300320000002000a00188000e
:100490004440a800000006008a1f78008b1f7800e7
:1004a0000000060091018800800478000000eb0045
:1004b0001a003700e284440032a0b4009905ba0063
:1004c000e284440032a0b4009906ba00e2844400f9
:1004d00032a0b4000006eb00476fde00fd07b2005b
:1004e000636ce10003003a00ebff07000000eb0043
:1004f0000a003700606ce10004003a00005deb0088
:100500008b05e900fdff3e00040037006168e10053
:10051000010032000086eb000b00070019c7ba008b
:100520001905ba000e04e00003003a000a00e000da
:10053000e0ff3a0000000600fe07b2009e018800be
:100540008a047800f5ff3700395dba008b05e900b1
:100550000c003200295dba008b05e900080032006a
:100560000c00e00003003a00e284440032a0b40032
:10057000f5ff370019ddba008b05e900faff3a00f4
:100580008904e800e184440032a0b40000000600c1
:1005900000000000000000000040da000000fe0043
:0405a0000000050052
:020000040000fa
:1005a4000400fa008e80e800800878000000eb0068
:1005b400000f7800020037007d0107001e0fe800dd
:1005c4000e80e800100078009e007800808f5000b4
:1005d400f9ff35000080fa00000006000000fa0070
:1005e400213a8000f08f2f0000806000203a8800bc
:1005f400f0ff290060198800e0ff2f000016880032
:10060400c422ef000080fa00000006000000fa0097
:100614005601070055010700540107005301070064
:100624005201070051010700500107004f01070064
:100634004e0107004d0107004c0107004b01070064
:100644004a01070049010700480107004701070064
:100654004d0107004c0107004b0107004a01070048
:100664004901070048010700470107004601070048
:10067400c422ef004b0107000080fa0000000600ce
:100684000400fa00004f78000e00e80001487800ea
:100694000e80e800024878001e80fb008000eb001a
:1006a400c001dd00020020000e00e80010407800c8
:1006b4000082fb008002eb004828dd00c820de0039
:1006c400810070004820dd0000017100818171000b
:1006d4000e80e800104078000080fb008000eb00f2
:1006e40000007100818071000080fa0000000600a3
:1006f4000400fa00008fbe001e00be004008de00a9
:10070400004078000080fa00000006000400fa00af
:10071400008fbe001e00be004809dd004800de0058
:1007240000007100c808de00004078000080fa0074
:10073400000006000400fa00008fbe001e007800ce
:10074400004078000080fa00000006000a00fa0069
:10075400660147000089be00660047001000be0025
:10076400e3ff07000080fb00000f780066004700ed
:100774001000be00e5ff07008080fb000e80e8004b
:1007840001087800660047001000be00e9ff07007a
:100794008080fb006400470001087800233e2000ad
:1007a40064004700100178000e80e8009000780093
:1007b4001e007800030001000080fa00000006001b
:1007c4000c00fa00e6014700800978006800470041
:1007d400010878006a0047000208780070002000d1
:1007e400000f78000c003700660047009000780086
:1007f4001e0078000088de00610060000040780080
:100804000004e00002003200df00070001003700ae
:10081400d60007001e0fe9001e0078000000e0006b
:10082400f1ff3d00710020000e80e800010878000f
:100834001100370068004700900078000e80e8003f
:10084400100078000088de0061006000004078003d
:100854000004e00002003200cb0007000100370072
:10086400c20007000e80e800100078008000e90054
:100874000e80e800010878000e80e800100078007f
:100884000000e000ebff3d00710020006400470021
:1008940001087800110037006a00470090007800d2
:1008a40064004700100078000088de0061006000ea
:1008b400004078000004e00002003200b2000700ab
:1008c40001003700a9000700640047001000780009
:1008d4008000e900640047000108780064004700d4
:1008e400100078000000e000ebff3d00c422ef00a0
:1008f400ac0007000080fa00000006000200fa00c5
:10090400004f7800e0c3b3009e40780080cf5000d1
:1009140007003e001e4078004200dd0000417800e0
:100924008040eb0000c0eb0055ff07002d003700ae
:10093400e0c7b3009e40780080cf50000c003e001a
:1009440010ccb3001e4f40009e407800c00f200022
:100954000088b90000007800004078000040e900f9
:1009640000c1eb008040eb0045ff07001d0037008d
:10097400e0cbb3009e40780080cf500008003e00da
:1009840010c8b3001e4f40001e4078004200dd0036
:1009940000c1eb008040eb0039ff07001100370075
:1009a4001e407800e14f40000d00320011c4b30036
:1009b4001ecf40009e407800c00f20000088b90080
:1009c40000007800004078000040e9000041780011
:1009d4008040eb0000c0eb0029ff07000100370056
:1009e400000037000080fa00000006000200fa0050
:1009f400004f78001ecfea0040c5b3009e40780047
:100a040080cf50000d003e001e4078006300b90006
:100a140000007800004178009e407800d00f20004c
:100a24000088b90000007800004078000040e90028
:100a34008040eb0012ff07002300370090cab30088
:100a44009e40780080cf500010003e00b0cab30032
:100a54001e4f40009e407800d00f20000088b9004f
:100a640000007800004078000041e9001e40780052
:100a74006300b900000078000040780080407800ee
:100a84000040eb00fefe07000f00370061c5b30015
:100a94001ecf40009e407800d00f20000088b9008f
:100aa40000007800004078008041e9001e40780092
:100ab4006300b90000007800004078000041eb00ba
:100ac40083407800eefe07000080fa000000060074
:100ad4000800fa00c1fe0700f00f2000000f7800a4
:100ae4008000eb000e80e800010878001e0078000a
:100af4000040780081ff0700640147000089be00c0
:100b0400640047001000be0010ff0700f00f200033
:100b14009e007800808f500004003a008000eb00b3
:100b24000e80e80001087800060037001e007800f7
:100b34000000e00003003a00110020000e80e800ed
:100b4400010878000e80e800100078000000e00042
:100b5400020032001e0fe800010037001e0fe900fa
:100b6400500020008efe0700e0ff3700c422ec0096
:100b74000300090000000000c422ef000600090081
:100b84000000000000000600c422ec000800090078
:100b940000000000c422ef00010009000000000072
:100ba40000000600390609000000000000000600ed
:0c0bb400793e090000000000000006006f
:020000040000fa
:020000040001f9
:0457f8000ff90000a5
:020000040000fa
:020000040001f9
:0457fc007f3f0000eb
:00000001FF
