:020000040000fa
:080000000002040000000000f2
:020000040000fa
:04000800c80200002a
:020000040000fa
:04000c00c802000026
:020000040000fa
:04001000c802000022
:020000040000fa
:04001400c80200001e
:020000040000fa
:04001800c80200001a
:020000040000fa
:04001c00c802000016
:020000040000fa
:04002000c802000012
:020000040000fa
:04002400c80200000e
:020000040000fa
:04002800c80200000a
:020000040000fa
:04002c00c802000006
:020000040000fa
:04003000c802000002
:020000040000fa
:04003400c8020000fe
:020000040000fa
:04003800c8020000fa
:020000040000fa
:04003c00c8020000f6
:020000040000fa
:04004000c8020000f2
:020000040000fa
:04004400c8020000ee
:020000040000fa
:04004800c8020000ea
:020000040000fa
:04004c00c8020000e6
:020000040000fa
:04005000c8020000e2
:020000040000fa
:04005400c8020000de
:020000040000fa
:04005800c8020000da
:020000040000fa
:04005c00c8020000d6
:020000040000fa
:04006000c8020000d2
:020000040000fa
:04006400c8020000ce
:020000040000fa
:04006800c8020000ca
:020000040000fa
:04006c00c8020000c6
:020000040000fa
:04007000c8020000c2
:020000040000fa
:04007400c8020000be
:020000040000fa
:04007800c8020000ba
:020000040000fa
:04007c00c8020000b6
:020000040000fa
:04008000c8020000b2
:020000040000fa
:04008400c8020000ae
:020000040000fa
:04008800c8020000aa
:020000040000fa
:04008c00c8020000a6
:020000040000fa
:04009000c8020000a2
:020000040000fa
:04009400c80200009e
:020000040000fa
:04009800c80200009a
:020000040000fa
:04009c00c802000096
:020000040000fa
:0400a000c802000092
:020000040000fa
:0400a400c80200008e
:020000040000fa
:0400a800c80200008a
:020000040000fa
:0400ac00c802000086
:020000040000fa
:0400b000c802000082
:020000040000fa
:0400b400c80200007e
:020000040000fa
:0400b800c80200007a
:020000040000fa
:0400bc00c802000076
:020000040000fa
:0400c000c802000072
:020000040000fa
:0400c400c80200006e
:020000040000fa
:0400c800c80200006a
:020000040000fa
:0400cc00c802000066
:020000040000fa
:0400d000c802000062
:020000040000fa
:0400d400c80200005e
:020000040000fa
:0400d800c80200005a
:020000040000fa
:0400dc00c802000056
:020000040000fa
:0400e000c802000052
:020000040000fa
:0400e400c80200004e
:020000040000fa
:0400e800c80200004a
:020000040000fa
:0400ec00c802000046
:020000040000fa
:0400f000c802000042
:020000040000fa
:0400f400c80200003e
:020000040000fa
:0400f800c80200003a
:020000040000fa
:0400fc00c802000036
:020000040000fa
:04010000c802000031
:020000040000fa
:04010400c80200002d
:020000040000fa
:04010800c802000029
:020000040000fa
:04010c00c802000025
:020000040000fa
:04011000c802000021
:020000040000fa
:04011400c80200001d
:020000040000fa
:04011800c802000019
:020000040000fa
:04011c00c802000015
:020000040000fa
:04012000c802000011
:020000040000fa
:04012400c80200000d
:020000040000fa
:04012800c802000009
:020000040000fa
:04012c00c802000005
:020000040000fa
:04013000c802000001
:020000040000fa
:04013400c8020000fd
:020000040000fa
:04013800c8020000f9
:020000040000fa
:04013c00c8020000f5
:020000040000fa
:04014000c8020000f1
:020000040000fa
:04014400c8020000ed
:020000040000fa
:04014800c8020000e9
:020000040000fa
:04020800c802000028
:020000040000fa
:04020c00c802000024
:020000040000fa
:04021000c802000020
:020000040000fa
:04021400c80200001c
:020000040000fa
:04021800c802000018
:020000040000fa
:04021c00c802000014
:020000040000fa
:04022000c802000010
:020000040000fa
:04022400c80200000c
:020000040000fa
:04022800c802000008
:020000040000fa
:04022c00c802000004
:020000040000fa
:04023000c802000000
:020000040000fa
:04023400c8020000fc
:020000040000fa
:04023800c8020000f8
:020000040000fa
:04023c00c8020000f4
:020000040000fa
:04024000c8020000f0
:020000040000fa
:04024400c8020000ec
:020000040000fa
:04024800c8020000e8
:020000040000fa
:04024c00c8020000e4
:020000040000fa
:04025000c8020000e0
:020000040000fa
:04025400c8020000dc
:020000040000fa
:04025800c8020000d8
:020000040000fa
:04025c00c8020000d4
:020000040000fa
:04026000c8020000d0
:020000040000fa
:04026400c8020000cc
:020000040000fa
:04026800c8020000c8
:020000040000fa
:04026c00c8020000c4
:020000040000fa
:04027000c8020000c0
:020000040000fa
:04027400c8020000bc
:020000040000fa
:04027800c8020000b8
:020000040000fa
:04027c00c8020000b4
:020000040000fa
:04028000c8020000b0
:020000040000fa
:04028400c8020000ac
:020000040000fa
:04028800c8020000a8
:020000040000fa
:04028c00c8020000a4
:020000040000fa
:04029000c8020000a0
:020000040000fa
:04029400c80200009c
:020000040000fa
:04029800c802000098
:020000040000fa
:04029c00c802000094
:020000040000fa
:0402a000c802000090
:020000040000fa
:0402a400c80200008c
:020000040000fa
:0402a800c802000088
:020000040000fa
:0402ac00c802000084
:020000040000fa
:0402b000c802000080
:020000040000fa
:0402b400c80200007c
:020000040000fa
:0402b800c802000078
:020000040000fa
:0402bc00c802000074
:020000040000fa
:0402c000c802000070
:020000040000fa
:0402c400c80200006c
:020000040000fa
:0402c800c802000068
:020000040000fa
:0402cc00c802000064
:020000040000fa
:0402d000c802000060
:020000040000fa
:0402d400c80200005c
:020000040000fa
:0402d800c802000058
:020000040000fa
:0402dc00c802000054
:020000040000fa
:0402e000c802000050
:020000040000fa
:0402e400c80200004c
:020000040000fa
:0402e800c802000048
:020000040000fa
:0402ec00c802000044
:020000040000fa
:0402f000c802000040
:020000040000fa
:0402f400c80200003c
:020000040000fa
:0402f800c802000038
:020000040000fa
:0402fc00c802000034
:020000040000fa
:04030000c80200002f
:020000040000fa
:04030400c80200002b
:020000040000fa
:04030800c802000027
:020000040000fa
:04030c00c802000023
:020000040000fa
:04031000c80200001f
:020000040000fa
:04031400c80200001b
:020000040000fa
:04031800c802000017
:020000040000fa
:04031c00c802000013
:020000040000fa
:04032000c80200000f
:020000040000fa
:04032400c80200000b
:020000040000fa
:04032800c802000007
:020000040000fa
:04032c00c802000003
:020000040000fa
:04033000c8020000ff
:020000040000fa
:04033400c8020000fb
:020000040000fa
:04033800c8020000f7
:020000040000fa
:04033c00c8020000f3
:020000040000fa
:04034000c8020000ef
:020000040000fa
:04034400c8020000eb
:020000040000fa
:04034800c8020000e7
:020000040000fa
:100400000f8020000e7f22000e01880000000000f7
:10041000000020000000e000020032000001200087
:1004200020028800140007005b0007000000e000c5
:1004300003003a0000002000010020000200370005
:100440000000200001002000810f70000100320038
:1004500014000700000020000000e000020032004d
:100460000000020000000000ce07020000000000b3
:100470000040da000000fe004440a9000002200015
:100480000000e0000300320000002000a00188000e
:100490004440a800000006008a1f78008b1f7800e7
:1004a0000000060091018800800478000000eb0045
:1004b0001a003700e284440032a0b4009905ba0063
:1004c000e284440032a0b4009906ba00e2844400f9
:1004d00032a0b4000006eb00476fde00fd07b2005b
:1004e000636ce10003003a00ebff07000000eb0043
:1004f0000a003700606ce10004003a00005deb0088
:100500008b05e900fdff3e00040037006168e10053
:10051000010032000086eb000b00070019c7ba008b
:100520001905ba000e04e00003003a000a00e000da
:10053000e0ff3a0000000600fe07b2009e018800be
:100540008a047800f5ff3700395dba008b05e900b1
:100550000c003200295dba008b05e900080032006a
:100560000c00e00003003a00e284440032a0b40032
:10057000f5ff370019ddba008b05e900faff3a00f4
:100580008904e800e184440032a0b40000000600c1
:0c0590000040da000000fe000000050042
:020000040000fa
:10059c000100000002000000030000000a0000003f
:1005ac000400000005000000060000000b00000025
:1005bc000700000008000000090000000c0000000b
:1005cc000e000000000000000f0000000d000000f5
:020000040000fa
:1005dc000000fa00213a8000f08f2f0000806000ac
:1005ec00203a8800f0ff29006019880030002000b4
:1005fc0040168800f03f2f00601688000080fa003b
:10060c00000006000000fa00f03f2f006016880082
:10061c000080fa00000006000400fa00004f780089
:10062c000e80e800010878000e80e80010007800c9
:10063c000000e000030032006016800000b0a00053
:10064c00601688000e80e800100078000000e000c2
:10065c0003003a006016800000a0a000601688001d
:10066c0010c6b3009e40780080cf500004003a00c2
:10067c00601680000090a1006016880037003700db
:10068c0020c4b3009e40780080cf500004003a0094
:10069c00601680000080a100601688002f003700d3
:1006ac0030c6b3009e40780080cf500004003a0062
:1006bc00601680000070a1006016880027003700cb
:1006cc0040c4b3009e40780080cf500004003a0034
:1006dc00601680000060a100601688001f003700c3
:1006ec0050c6b3009e40780080cf500004003a0002
:1006fc00601680000050a1006016880017003700bb
:10070c0060c6b3009e40780080cf500004003a00d1
:10071c00601680000040a100601688000f003700b2
:10072c0070c6b3009e40780080cf500004003a00a1
:10073c00601680000030a1006016880007003700aa
:10074c00e0c2b3009e40780080cf500003003a0016
:10075c00601680000020a1006016880000c3b30062
:10076c009e40780080cf500004003a000e80e800d4
:10077c0010007800fd0007007700370010c3b300ad
:10078c009e40780080cf500004003a000e80e800b4
:10079c0010007800790007006f00370020c3b30009
:1007ac009e40780080cf500004003a000e80e80094
:1007bc00100078007b0007006700370030c3b300df
:1007cc009e40780080cf500004003a000e80e80074
:1007dc0010007800860007005f00370040c3b300ac
:1007ec009e40780080cf500004003a000e80e80054
:1007fc00100078008d0007005700370050c3b3007d
:10080c009e40780080cf500004003a000e80e80033
:10081c0010007800910007004f00370060c3b30050
:10082c009e40780080cf500004003a000e80e80013
:10083c00100078009c0007004700370070c3b3001d
:10084c009e40780080cf500004003a000e80e800f3
:10085c0010007800a70007003f00370080c3b300ea
:10086c009e40780080cf500004003a000e80e800d3
:10087c0010007800a80007003700370090c3b300c1
:10088c009e40780080cf500004003a000e80e800b3
:10089c0010007800ac0007002f00370010c4b30024
:1008ac009e40780080cf500004003a000e80e80093
:1008bc0010007800bc0007002700370020c6b300ea
:1008cc009e40780080cf500004003a000e80e80073
:1008dc0010007800c30007001f00370030c4b300bd
:1008ec009e40780080cf500004003a000e80e80053
:1008fc0010007800c10007001700370040c6b30095
:10090c009e40780080cf500004003a000e80e80032
:10091c0010007800c90007000f00370050c4b30066
:10092c009e40780080cf500004003a000e80e80012
:10093c0010007800d00007000700370060c4b30037
:10094c009e40780080cf500003003a000e80e800f3
:10095c0010007800d10007000080fa0000000600ab
:10096c000200fa00000f78009e007800e0c2b3008d
:10097c0029ff07000080fa00000006000200fa00c0
:10098c00000f78009e00780020c4b30022ff0700ff
:10099c009e00780030c6b3001fff07000080fa00ed
:1009ac00000006000200fa00000f78009e0078009c
:1009bc0010c6b30018ff07009e00780020c4b300d7
:1009cc0015ff07009e00780070c6b30012ff0700e9
:1009dc009e00780050c6b3000fff07009e00780001
:1009ec0040c4b3000cff07000080fa0000000600b2
:1009fc000200fa00000f78001e007800dfff0700ed
:100a0c009e00780040c4b30003ff07009e007800ee
:100a1c0010c6b30000ff07009e00780070c6b3003c
:100a2c00fdfe07000080fa00000006000200fa003c
:100a3c00000f78001e007800d0ff07009e007800a1
:100a4c0070c6b300f4fe07009e00780060c6b300c9
:100a5c00f1fe07000080fa00000006000200fa0018
:100a6c00000f78009e00780010c6b300eafe070065
:100a7c009e00780060c6b300e7fe07009e00780079
:100a8c0070c6b300e4fe07009e00780030c6b300c9
:100a9c00e1fe07009e00780040c4b300defe0700b4
:100aac000080fa00000006000200fa00000f780037
:100abc009e00780060c6b300d7fe07009e00780049
:100acc0050c6b300d4fe07009e00780070c6b30079
:100adc00d1fe07009e00780030c6b300cefe0700a2
:100aec009e00780040c4b300cbfe07000080fa00e3
:100afc00000006000200fa00000f78009e0078004b
:100b0c0010c6b300c4fe07001e0078009bff070050
:100b1c000080fa00000006000200fa00000f7800c6
:100b2c001e007800e0ff07009e00780010c6b3009e
:100b3c00b9fe07009e00780020c4b300b6fe070083
:100b4c000080fa00000006000200fa00000f780096
:100b5c001e007800b5ff07009e00780010c6b30099
:100b6c00adfe07000080fa00000006000200fa004b
:100b7c00000f78001e007800deff07009e00780052
:100b8c0060c6b300a4fe07009e00780050c6b300f8
:100b9c00a1fe07009e00780040c4b3009efe070033
:100bac000080fa00000006000200fa00000f780036
:100bbc001e007800cfff07009e00780060c6b300cf
:100bcc0095fe07009e00780050c6b30092fe070009
:100bdc009e00780070c6b3008ffe07000080fa00fc
:100bec00000006000200fa00000f78001e007800da
:100bfc00adff07000080fa00000006000200fa00ba
:100c0c00000f78009e00780060c6b30082fe0700db
:100c1c009e00780050c6b3007ffe07009e0078004f
:100c2c0010c6b3007cfe07009e00780040c4b300e1
:100c3c0079fe07000080fa00000006000200fa00ae
:100c4c00000f78001e0078004cff07009e00780013
:100c5c0070c6b30070fe07009e00780050c6b3004b
:100c6c006dfe07009e00780040c4b3006afe0700ca
:100c7c000080fa00000006000200fa00000f780065
:100c8c001e007800ddff07009e00780070c6b300e0
:100c9c0061fe07000080fa00000006000200fa0066
:100cac00000f78009e00780060c6b3005afe070063
:100cbc009e00780050c6b30057fe07009e007800d7
:100ccc0010c6b30054fe07009e00780070c6b30037
:100cdc0051fe07000080fa00000006000000fa0038
:100cec000000eb001eff0700a00f200036020700db
:100cfc0044fe07001000200019ff0700a00f200081
:100d0c00310207003ffe07000000eb0097ff0700d1
:100d1c00a00f20002c0207003afe07001000200054
:100d2c0092ff0700a00f20002702070035fe0700e6
:100d3c000000eb0011ff0700a00f200022020700ab
:100d4c0030fe0700100020000cff0700a00f200051
:100d5c001d0207002bfe07000000eb0011ff07002f
:100d6c00a00f20001802070026fe0700100020002c
:100d7c000cff0700a00f20001302070021fe070044
:100d8c000000eb001aff0700a00f20000e02070066
:100d9c001cfe07001000200015ff0700a00f20000c
:100dac000902070017fe07000000eb001fff0700f9
:100dbc00a00f20000402070012fe07001000200004
:100dcc001aff0700a00f2000ff0107000dfe07000f
:100ddc000000eb0021ff0700a00f2000fa01070024
:100dec0008fe0700100020001cff0700a00f2000c9
:100dfc00f501070003fe07000000eb002aff0700c7
:100e0c00a00f2000f0010700fefd070010002000dd
:100e1c0025ff0700a00f2000eb010700f9fd0700dc
:100e2c000000eb0033ff0700a00f2000e6010700d5
:100e3c00f4fd0700100020002eff0700a00f20007b
:100e4c00e1010700effd07000000eb0032ff070097
:100e5c00a00f2000dc010700eafd070010002000b5
:100e6c002dff0700a00f2000d7010700e5fd0700ac
:100e7c000000eb0034ff0700a00f2000d201070098
:100e8c00e0fd07001000200023ff0700a00f20004a
:100e9c00cd010700dbfd07000000eb0042ff07005f
:100eac00a00f2000c8010700d6fd0700100020008d
:100ebc003dff0700a00f2000c3010700d1fd070074
:100ecc000000eb0047ff0700a00f2000be01070049
:100edc00ccfd07001000200042ff0700a00f2000ef
:100eec00b9010700c7fd07000000eb0043ff070036
:100efc00a00f2000b4010700c2fd07001000200065
:100f0c003eff0700a00f2000af010700bdfd07004a
:100f1c000000eb0049ff0700a00f2000aa0107000a
:100f2c00b8fd07001000200044ff0700a00f2000b0
:100f3c00a5010700b3fd07000000eb004eff070002
:100f4c00a00f2000a0010700aefd0700100020003c
:100f5c0049ff0700a00f20009b010700a9fd070017
:100f6c000000eb004dff0700a00f200096010700ca
:100f7c00a4fd07001000200048ff0700a00f200070
:100f8c00910107009ffd07000080fa000000060099
:100f9c000600fa008efd0700d20007000080eb006f
:100fac00000f78008040eb000e80e80001487800cc
:100fbc008040eb006300470001487800000000000f
:100fcc0010002000800107000b0107008000780052
:100fdc0064004700010878006400470010007800a6
:100fec009e0f5000ac0032006400470010007800e7
:100ffc000000e000730035000e80e800e3004700bd
:10100c001148780064004700100078000000e000f0
:10101c0003003a0021c3b300630047000148780085
:10102c006400470010007800e10f500003003a0004
:10103c0051c4b300630047000148780064004700c6
:10104c0010007800e20f500003003a0001c3b30017
:10105c0063004700014878006400470010007800e6
:10106c00e30f500003003a0061c4b3006300470073
:10107c00014878006400470010007800e40f50002d
:10108c0003003a0071c3b3006300470001487800c5
:10109c006400470010007800e50f500003003a0090
:1010ac0081c3b30063004700014878006400470027
:1010bc0010007800e60f500003003a0091c3b30013
:1010cc006300470001487800640047001000780076
:1010dc00e70f500003003a0041c3b3006300470020
:1010ec00014878006400470010007800e80f5000b9
:1010fc0003003a0051c3b300630047000148780075
:10110c006400470010007800e90f500003003a001b
:10111c0061c3b300630047000148780064004700d6
:10112c0010007800ea0f500003003a0041c6b300eb
:10113c006300470001487800640047001000780005
:10114c00eb0f500003003a0031c4b30063004700ba
:10115c00014878006400470010007800ec0f500044
:10116c0003003a0021c6b300630047000148780031
:10117c006400470010007800ed0f500003003a00a7
:10118c0011c4b300630047000148780064004700b5
:10119c0010007800ee0f500003003a0011c3b300aa
:1011ac006300470001487800640047001000780095
:1011bc00ef0f500003003a0031c3b3006300470047
:1011cc000148780064004700100f78006300470066
:1011dc00104078000004e00007003a0011002000e5
:1011ec00e0c2b3000cfd07008000eb00e0c2b300ce
:1011fc0009fd0700280037000e80e8001040780039
:10120c000004e00012003a00630047001040780030
:10121c000004e0000e00320020002000ea0007006d
:10122c00f8fc070011002000e0c2b300fafc070034
:10123c008000eb00e0c2b300f7fc07008000eb007d
:10124c006300470010407800f3fc070012003700e1
:10125c00ecfc070011002000e0c2b300eefc07001c
:10126c00110020000e80e80010407800eafc070016
:10127c0020002000d4000700e2fc07008000eb00f7
:10128c00e0c2b300e4fc07008000eb006300470001
:10129c0010407800e0fc0700dafc07001100200089
:1012ac00e0c2b300dcfc0700110020000e80e80057
:1012bc0010407800d8fc070020002000c200070076
:1012cc00d0fc07008000eb00e0c2b300d2fc0700aa
:1012dc008000eb006300470010407800cefc070054
:1012ec0037ff37000000fa00f0ff29006019880072
:1012fc003000200040168800f00020000016880006
:10130c006840a8006860a8006bc0a8006ba0a8008b
:10131c000080fa00000006000400fa0070002000b3
:10132c00000f78008000eb000e80e80001087800c8
:10133c002a003700101680001e007000ee0f5000bf
:10134c0003003e000e80e8001000780028003700f3
:10135c000e80e800100078000000e00006003a0063
:10136c001e0078000000d100000f780010168000dd
:10137c000030a000101688000e80e80010007800e5
:10138c00e10f500006003a001e0078000000d1006a
:10139c00000f7800101680000020a00010168800a6
:1013ac000e80e80010007800e20f500006003a00b2
:1013bc001e0078000000d100000f7800101680008d
:1013cc000010a000101688000e80e80010007800b5
:1013dc008000e8000e80e800010878000e80e8002c
:1013ec0010007800e30f5000d2ff34000080eb00b7
:1013fc000080fa00000006002400fa000080eb00d8
:10140c00000f7800e4004700e22c28000f000900d0
:10141c00b21878008080eb000e80e800010878009c
:10142c006116800000002f0001007000601688001b
:10143c006016800000f0a10060168800b6ff07005f
:10144c00e10f40000c003200b3ff0700000f7800e2
:10145c001e007800000040000000470064004000bf
:10146c00900078000e80e800010878000e80e800fb
:10147c0010007800520037000e80e8001000780051
:10148c00e10f400017003a006116800000002f00a9
:10149c0001007000601688006016800000e0a1005a
:1014ac00601688009cff0700e10f40000d00320021
:1014bc0099ff0700000f78009e00780064804000c0
:1014cc0000004000000047006400400090007800dd
:1014dc000e80e800010878000e80e800100078000b
:1014ec00370037000e80e80010007800e10f400054
:1014fc0017003a006116800000002f0001007000f8
:10150c00601688006016800000d0a100601688006c
:10151c0081ff0700e10f40000d0032007eff070045
:10152c00000f78001e0178006800410000004000a8
:10153c000000470064004000900078000e80e80036
:10154c00010878000e80e800100078001c003700bd
:10155c000e80e80010007800e10f400017003a0000
:10156c006116800000002f000100700060168800da
:10157c006016800000c0a1006016880066ff07009e
:10158c00e10f40000d00320063ff0700000f7800f0
:10159c009e0078006c804000000040000000470076
:1015ac0064004000900078000e80e800010878008c
:1015bc000e80e80010007800010037000080eb007e
:1015cc000080fa00000006000400fa008e80e8009b
:1015dc00800878000000eb00000f78000200370054
:1015ec000b0007001e0fe8000e80e80010007800ca
:1015fc009e007800808f5000f9ff35000080fa00c3
:10160c00000006003906090000000000000006007a
:0c161c00793e09000000000000000600fc
:020000040000fa
:020000040001f9
:0457f8000ff90000a5
:020000040000fa
:020000040001f9
:0457fc007f3f0000eb
:00000001FF
